{
  "_format": "hh-sol-artifact-1",
  "contractName": "ProbeNode",
  "sourceName": "contracts/ProbeNode.sol",
  "abi": [
    {
      "inputs": [
        {
          "internalType": "address",
          "name": "initialOwner",
          "type": "address"
        },
        {
          "internalType": "string",
          "name": "baseURI_",
          "type": "string"
        },
        {
          "internalType": "string",
          "name": "metaURI_",
          "type": "string"
        },
        {
          "internalType": "uint256",
          "name": "initialMintingFee",
          "type": "uint256"
        }
      ],
      "stateMutability": "nonpayable",
      "type": "constructor"
    },
    {
      "inputs": [
        {
          "internalType": "address",
          "name": "sender",
          "type": "address"
        },
        {
          "internalType": "uint256",
          "name": "tokenId",
          "type": "uint256"
        },
        {
          "internalType": "address",
          "name": "owner",
          "type": "address"
        }
      ],
      "name": "ERC721IncorrectOwner",
      "type": "error"
    },
    {
      "inputs": [
        {
          "internalType": "address",
          "name": "operator",
          "type": "address"
        },
        {
          "internalType": "uint256",
          "name": "tokenId",
          "type": "uint256"
        }
      ],
      "name": "ERC721InsufficientApproval",
      "type": "error"
    },
    {
      "inputs": [
        {
          "internalType": "address",
          "name": "approver",
          "type": "address"
        }
      ],
      "name": "ERC721InvalidApprover",
      "type": "error"
    },
    {
      "inputs": [
        {
          "internalType": "address",
          "name": "operator",
          "type": "address"
        }
      ],
      "name": "ERC721InvalidOperator",
      "type": "error"
    },
    {
      "inputs": [
        {
          "internalType": "address",
          "name": "owner",
          "type": "address"
        }
      ],
      "name": "ERC721InvalidOwner",
      "type": "error"
    },
    {
      "inputs": [
        {
          "internalType": "address",
          "name": "receiver",
          "type": "address"
        }
      ],
      "name": "ERC721InvalidReceiver",
      "type": "error"
    },
    {
      "inputs": [
        {
          "internalType": "address",
          "name": "sender",
          "type": "address"
        }
      ],
      "name": "ERC721InvalidSender",
      "type": "error"
    },
    {
      "inputs": [
        {
          "internalType": "uint256",
          "name": "tokenId",
          "type": "uint256"
        }
      ],
      "name": "ERC721NonexistentToken",
      "type": "error"
    },
    {
      "inputs": [
        {
          "internalType": "address",
          "name": "owner",
          "type": "address"
        }
      ],
      "name": "OwnableInvalidOwner",
      "type": "error"
    },
    {
      "inputs": [
        {
          "internalType": "address",
          "name": "account",
          "type": "address"
        }
      ],
      "name": "OwnableUnauthorizedAccount",
      "type": "error"
    },
    {
      "inputs": [],
      "name": "ReentrancyGuardReentrantCall",
      "type": "error"
    },
    {
      "anonymous": false,
      "inputs": [
        {
          "indexed": true,
          "internalType": "address",
          "name": "owner",
          "type": "address"
        },
        {
          "indexed": true,
          "internalType": "address",
          "name": "approved",
          "type": "address"
        },
        {
          "indexed": true,
          "internalType": "uint256",
          "name": "tokenId",
          "type": "uint256"
        }
      ],
      "name": "Approval",
      "type": "event"
    },
    {
      "anonymous": false,
      "inputs": [
        {
          "indexed": true,
          "internalType": "address",
          "name": "owner",
          "type": "address"
        },
        {
          "indexed": true,
          "internalType": "address",
          "name": "operator",
          "type": "address"
        },
        {
          "indexed": false,
          "internalType": "bool",
          "name": "approved",
          "type": "bool"
        }
      ],
      "name": "ApprovalForAll",
      "type": "event"
    },
    {
      "anonymous": false,
      "inputs": [
        {
          "indexed": false,
          "internalType": "uint256",
          "name": "_fromTokenId",
          "type": "uint256"
        },
        {
          "indexed": false,
          "internalType": "uint256",
          "name": "_toTokenId",
          "type": "uint256"
        }
      ],
      "name": "BatchMetadataUpdate",
      "type": "event"
    },
    {
      "anonymous": false,
      "inputs": [
        {
          "indexed": false,
          "internalType": "uint256",
          "name": "_tokenId",
          "type": "uint256"
        }
      ],
      "name": "MetadataUpdate",
      "type": "event"
    },
    {
      "anonymous": false,
      "inputs": [
        {
          "indexed": true,
          "internalType": "address",
          "name": "previousOwner",
          "type": "address"
        },
        {
          "indexed": true,
          "internalType": "address",
          "name": "newOwner",
          "type": "address"
        }
      ],
      "name": "OwnershipTransferred",
      "type": "event"
    },
    {
      "anonymous": false,
      "inputs": [
        {
          "indexed": true,
          "internalType": "address",
          "name": "from",
          "type": "address"
        },
        {
          "indexed": true,
          "internalType": "address",
          "name": "to",
          "type": "address"
        },
        {
          "indexed": true,
          "internalType": "uint256",
          "name": "tokenId",
          "type": "uint256"
        }
      ],
      "name": "Transfer",
      "type": "event"
    },
    {
      "inputs": [
        {
          "internalType": "uint256",
          "name": "",
          "type": "uint256"
        }
      ],
      "name": "allTokens",
      "outputs": [
        {
          "internalType": "uint256",
          "name": "id",
          "type": "uint256"
        },
        {
          "internalType": "address",
          "name": "addr",
          "type": "address"
        },
        {
          "internalType": "string",
          "name": "opsAddr",
          "type": "string"
        },
        {
          "internalType": "string",
          "name": "uri",
          "type": "string"
        }
      ],
      "stateMutability": "view",
      "type": "function"
    },
    {
      "inputs": [
        {
          "internalType": "address",
          "name": "to",
          "type": "address"
        },
        {
          "internalType": "uint256",
          "name": "tokenId",
          "type": "uint256"
        }
      ],
      "name": "approve",
      "outputs": [],
      "stateMutability": "nonpayable",
      "type": "function"
    },
    {
      "inputs": [
        {
          "internalType": "address",
          "name": "owner",
          "type": "address"
        }
      ],
      "name": "balanceOf",
      "outputs": [
        {
          "internalType": "uint256",
          "name": "",
          "type": "uint256"
        }
      ],
      "stateMutability": "view",
      "type": "function"
    },
    {
      "inputs": [],
      "name": "baseURI",
      "outputs": [
        {
          "internalType": "string",
          "name": "",
          "type": "string"
        }
      ],
      "stateMutability": "view",
      "type": "function"
    },
    {
      "inputs": [
        {
          "internalType": "uint256",
          "name": "tokenId",
          "type": "uint256"
        }
      ],
      "name": "burn",
      "outputs": [],
      "stateMutability": "nonpayable",
      "type": "function"
    },
    {
      "inputs": [
        {
          "internalType": "uint256",
          "name": "tokenId",
          "type": "uint256"
        }
      ],
      "name": "exists",
      "outputs": [
        {
          "internalType": "bool",
          "name": "",
          "type": "bool"
        }
      ],
      "stateMutability": "view",
      "type": "function"
    },
    {
      "inputs": [
        {
          "internalType": "uint256",
          "name": "tokenId",
          "type": "uint256"
        }
      ],
      "name": "getApproved",
      "outputs": [
        {
          "internalType": "address",
          "name": "",
          "type": "address"
        }
      ],
      "stateMutability": "view",
      "type": "function"
    },
    {
      "inputs": [
        {
          "internalType": "uint256",
          "name": "offset",
          "type": "uint256"
        },
        {
          "internalType": "uint256",
          "name": "count",
          "type": "uint256"
        },
        {
          "internalType": "bool",
          "name": "reverse",
          "type": "bool"
        }
      ],
      "name": "getTokenDataPaginated",
      "outputs": [
        {
          "components": [
            {
              "internalType": "uint256",
              "name": "id",
              "type": "uint256"
            },
            {
              "internalType": "address",
              "name": "addr",
              "type": "address"
            },
            {
              "internalType": "string",
              "name": "opsAddr",
              "type": "string"
            },
            {
              "internalType": "string",
              "name": "uri",
              "type": "string"
            }
          ],
          "internalType": "struct ProbeNode.TokenData[]",
          "name": "",
          "type": "tuple[]"
        }
      ],
      "stateMutability": "view",
      "type": "function"
    },
    {
      "inputs": [
        {
          "internalType": "address",
          "name": "addr",
          "type": "address"
        }
      ],
      "name": "getTokensByAddress",
      "outputs": [
        {
          "components": [
            {
              "internalType": "uint256",
              "name": "id",
              "type": "uint256"
            },
            {
              "internalType": "address",
              "name": "addr",
              "type": "address"
            },
            {
              "internalType": "string",
              "name": "opsAddr",
              "type": "string"
            },
            {
              "internalType": "string",
              "name": "uri",
              "type": "string"
            }
          ],
          "internalType": "struct ProbeNode.TokenData[]",
          "name": "",
          "type": "tuple[]"
        }
      ],
      "stateMutability": "view",
      "type": "function"
    },
    {
      "inputs": [
        {
          "internalType": "address",
          "name": "owner",
          "type": "address"
        },
        {
          "internalType": "address",
          "name": "operator",
          "type": "address"
        }
      ],
      "name": "isApprovedForAll",
      "outputs": [
        {
          "internalType": "bool",
          "name": "",
          "type": "bool"
        }
      ],
      "stateMutability": "view",
      "type": "function"
    },
    {
      "inputs": [
        {
          "internalType": "string",
          "name": "opsAddr",
          "type": "string"
        }
      ],
      "name": "mint",
      "outputs": [],
      "stateMutability": "payable",
      "type": "function"
    },
    {
      "inputs": [],
      "name": "mintingFee",
      "outputs": [
        {
          "internalType": "uint256",
          "name": "",
          "type": "uint256"
        }
      ],
      "stateMutability": "view",
      "type": "function"
    },
    {
      "inputs": [],
      "name": "name",
      "outputs": [
        {
          "internalType": "string",
          "name": "",
          "type": "string"
        }
      ],
      "stateMutability": "view",
      "type": "function"
    },
    {
      "inputs": [],
      "name": "owner",
      "outputs": [
        {
          "internalType": "address",
          "name": "",
          "type": "address"
        }
      ],
      "stateMutability": "view",
      "type": "function"
    },
    {
      "inputs": [
        {
          "internalType": "uint256",
          "name": "tokenId",
          "type": "uint256"
        }
      ],
      "name": "ownerOf",
      "outputs": [
        {
          "internalType": "address",
          "name": "",
          "type": "address"
        }
      ],
      "stateMutability": "view",
      "type": "function"
    },
    {
      "inputs": [],
      "name": "renounceOwnership",
      "outputs": [],
      "stateMutability": "nonpayable",
      "type": "function"
    },
    {
      "inputs": [
        {
          "internalType": "address",
          "name": "from",
          "type": "address"
        },
        {
          "internalType": "address",
          "name": "to",
          "type": "address"
        },
        {
          "internalType": "uint256",
          "name": "tokenId",
          "type": "uint256"
        }
      ],
      "name": "safeTransferFrom",
      "outputs": [],
      "stateMutability": "nonpayable",
      "type": "function"
    },
    {
      "inputs": [
        {
          "internalType": "address",
          "name": "from",
          "type": "address"
        },
        {
          "internalType": "address",
          "name": "to",
          "type": "address"
        },
        {
          "internalType": "uint256",
          "name": "tokenId",
          "type": "uint256"
        },
        {
          "internalType": "bytes",
          "name": "data",
          "type": "bytes"
        }
      ],
      "name": "safeTransferFrom",
      "outputs": [],
      "stateMutability": "nonpayable",
      "type": "function"
    },
    {
      "inputs": [
        {
          "internalType": "address",
          "name": "operator",
          "type": "address"
        },
        {
          "internalType": "bool",
          "name": "approved",
          "type": "bool"
        }
      ],
      "name": "setApprovalForAll",
      "outputs": [],
      "stateMutability": "nonpayable",
      "type": "function"
    },
    {
      "inputs": [
        {
          "internalType": "string",
          "name": "baseURI_",
          "type": "string"
        }
      ],
      "name": "setBaseURI",
      "outputs": [],
      "stateMutability": "nonpayable",
      "type": "function"
    },
    {
      "inputs": [
        {
          "internalType": "string",
          "name": "metaURI_",
          "type": "string"
        }
      ],
      "name": "setMetaURI",
      "outputs": [],
      "stateMutability": "nonpayable",
      "type": "function"
    },
    {
      "inputs": [
        {
          "internalType": "uint256",
          "name": "fee",
          "type": "uint256"
        }
      ],
      "name": "setMintingFee",
      "outputs": [],
      "stateMutability": "nonpayable",
      "type": "function"
    },
    {
      "inputs": [
        {
          "internalType": "bytes4",
          "name": "interfaceId",
          "type": "bytes4"
        }
      ],
      "name": "supportsInterface",
      "outputs": [
        {
          "internalType": "bool",
          "name": "",
          "type": "bool"
        }
      ],
      "stateMutability": "view",
      "type": "function"
    },
    {
      "inputs": [],
      "name": "symbol",
      "outputs": [
        {
          "internalType": "string",
          "name": "",
          "type": "string"
        }
      ],
      "stateMutability": "view",
      "type": "function"
    },
    {
      "inputs": [
        {
          "internalType": "uint256",
          "name": "tokenId",
          "type": "uint256"
        }
      ],
      "name": "tokenURI",
      "outputs": [
        {
          "internalType": "string",
          "name": "",
          "type": "string"
        }
      ],
      "stateMutability": "view",
      "type": "function"
    },
    {
      "inputs": [],
      "name": "totalBurned",
      "outputs": [
        {
          "internalType": "uint256",
          "name": "",
          "type": "uint256"
        }
      ],
      "stateMutability": "view",
      "type": "function"
    },
    {
      "inputs": [],
      "name": "totalSupply",
      "outputs": [
        {
          "internalType": "uint256",
          "name": "",
          "type": "uint256"
        }
      ],
      "stateMutability": "view",
      "type": "function"
    },
    {
      "inputs": [
        {
          "internalType": "address",
          "name": "from",
          "type": "address"
        },
        {
          "internalType": "address",
          "name": "to",
          "type": "address"
        },
        {
          "internalType": "uint256",
          "name": "tokenId",
          "type": "uint256"
        }
      ],
      "name": "transferFrom",
      "outputs": [],
      "stateMutability": "nonpayable",
      "type": "function"
    },
    {
      "inputs": [
        {
          "internalType": "address",
          "name": "newOwner",
          "type": "address"
        }
      ],
      "name": "transferOwnership",
      "outputs": [],
      "stateMutability": "nonpayable",
      "type": "function"
    },
    {
      "inputs": [
        {
          "internalType": "address payable",
          "name": "recipient",
          "type": "address"
        },
        {
          "internalType": "uint256",
          "name": "amount",
          "type": "uint256"
        }
      ],
      "name": "withdraw",
      "outputs": [],
      "stateMutability": "nonpayable",
      "type": "function"
    }
  ],
  "bytecode": "0x60806040523480156200001157600080fd5b5060405162004853380380620048538339818101604052810190620000379190620005a3565b836040518060400160405280600a81526020017f50726f6265204e6f6465000000000000000000000000000000000000000000008152506040518060400160405280600481526020017f5052424e000000000000000000000000000000000000000000000000000000008152508160009081620000b5919062000894565b508060019081620000c7919062000894565b505050600073ffffffffffffffffffffffffffffffffffffffff168173ffffffffffffffffffffffffffffffffffffffff16036200013f5760006040517f1e4fbdf70000000000000000000000000000000000000000000000000000000081526004016200013691906200098c565b60405180910390fd5b62000150816200018c60201b60201c565b5060016008819055506200016a836200025260201b60201c565b6200017b826200027760201b60201c565b80600b8190555050505050620009a9565b6000600760009054906101000a900473ffffffffffffffffffffffffffffffffffffffff16905081600760006101000a81548173ffffffffffffffffffffffffffffffffffffffff021916908373ffffffffffffffffffffffffffffffffffffffff1602179055508173ffffffffffffffffffffffffffffffffffffffff168173ffffffffffffffffffffffffffffffffffffffff167f8be0079c531659141344cd1fd0a4f28419497f9722a3daafe3b4186f6b6457e060405160405180910390a35050565b620002626200029c60201b60201c565b80600c908162000273919062000894565b5050565b620002876200029c60201b60201c565b80600d908162000298919062000894565b5050565b620002ac6200033e60201b60201c565b73ffffffffffffffffffffffffffffffffffffffff16620002d26200034660201b60201c565b73ffffffffffffffffffffffffffffffffffffffff16146200033c57620002fe6200033e60201b60201c565b6040517f118cdaa70000000000000000000000000000000000000000000000000000000081526004016200033391906200098c565b60405180910390fd5b565b600033905090565b6000600760009054906101000a900473ffffffffffffffffffffffffffffffffffffffff16905090565b6000604051905090565b600080fd5b600080fd5b600073ffffffffffffffffffffffffffffffffffffffff82169050919050565b6000620003b18262000384565b9050919050565b620003c381620003a4565b8114620003cf57600080fd5b50565b600081519050620003e381620003b8565b92915050565b600080fd5b600080fd5b6000601f19601f8301169050919050565b7f4e487b7100000000000000000000000000000000000000000000000000000000600052604160045260246000fd5b6200043e82620003f3565b810181811067ffffffffffffffff8211171562000460576200045f62000404565b5b80604052505050565b60006200047562000370565b905062000483828262000433565b919050565b600067ffffffffffffffff821115620004a657620004a562000404565b5b620004b182620003f3565b9050602081019050919050565b60005b83811015620004de578082015181840152602081019050620004c1565b60008484015250505050565b600062000501620004fb8462000488565b62000469565b90508281526020810184848401111562000520576200051f620003ee565b5b6200052d848285620004be565b509392505050565b600082601f8301126200054d576200054c620003e9565b5b81516200055f848260208601620004ea565b91505092915050565b6000819050919050565b6200057d8162000568565b81146200058957600080fd5b50565b6000815190506200059d8162000572565b92915050565b60008060008060808587031215620005c057620005bf6200037a565b5b6000620005d087828801620003d2565b945050602085015167ffffffffffffffff811115620005f457620005f36200037f565b5b620006028782880162000535565b935050604085015167ffffffffffffffff8111156200062657620006256200037f565b5b620006348782880162000535565b925050606062000647878288016200058c565b91505092959194509250565b600081519050919050565b7f4e487b7100000000000000000000000000000000000000000000000000000000600052602260045260246000fd5b60006002820490506001821680620006a657607f821691505b602082108103620006bc57620006bb6200065e565b5b50919050565b60008190508160005260206000209050919050565b60006020601f8301049050919050565b600082821b905092915050565b600060088302620007267fffffffffffffffffffffffffffffffffffffffffffffffffffffffffffffffff82620006e7565b620007328683620006e7565b95508019841693508086168417925050509392505050565b6000819050919050565b6000620007756200076f620007698462000568565b6200074a565b62000568565b9050919050565b6000819050919050565b620007918362000754565b620007a9620007a0826200077c565b848454620006f4565b825550505050565b600090565b620007c0620007b1565b620007cd81848462000786565b505050565b5b81811015620007f557620007e9600082620007b6565b600181019050620007d3565b5050565b601f82111562000844576200080e81620006c2565b6200081984620006d7565b8101602085101562000829578190505b620008416200083885620006d7565b830182620007d2565b50505b505050565b600082821c905092915050565b6000620008696000198460080262000849565b1980831691505092915050565b600062000884838362000856565b9150826002028217905092915050565b6200089f8262000653565b67ffffffffffffffff811115620008bb57620008ba62000404565b5b620008c782546200068d565b620008d4828285620007f9565b600060209050601f8311600181146200090c5760008415620008f7578287015190505b62000903858262000876565b86555062000973565b601f1984166200091c86620006c2565b60005b8281101562000946578489015182556001820191506020850194506020810190506200091f565b8683101562000966578489015162000962601f89168262000856565b8355505b6001600288020188555050505b505050505050565b6200098681620003a4565b82525050565b6000602082019050620009a360008301846200097b565b92915050565b613e9a80620009b96000396000f3fe6080604052600436106101cd5760003560e01c80636352211e116100f7578063a22cb46511610095578063d89135cd11610064578063d89135cd146106a0578063e985e9c5146106cb578063f2fde38b14610708578063f3fef3a314610731576101cd565b8063a22cb465146105f5578063b88d4fde1461061e578063c87b56dd14610647578063d85d3d2714610684576101cd565b8063715018a6116100d1578063715018a61461055f5780638da5cb5b1461057657806395d89b41146105a1578063a0eddf7e146105cc576101cd565b80636352211e146104ba5780636c0360eb146104f757806370a0823114610522576101cd565b806323b872dd1161016f5780634f558e791161013e5780634f558e79146103e957806355f804b3146104265780635a64ad951461044f578063634282af1461047a576101cd565b806323b872dd14610331578063422df6701461035a57806342842e0e1461039757806342966c68146103c0576101cd565b8063081812fc116101ab578063081812fc14610277578063095ea7b3146102b457806318160ddd146102dd578063238a470914610308576101cd565b806301ffc9a7146101d257806306fdde031461020f57806307ca36451461023a575b600080fd5b3480156101de57600080fd5b506101f960048036038101906101f49190612c11565b61075a565b6040516102069190612c59565b60405180910390f35b34801561021b57600080fd5b506102246107bb565b6040516102319190612d04565b60405180910390f35b34801561024657600080fd5b50610261600480360381019061025c9190612d84565b61084d565b60405161026e9190612f4f565b60405180910390f35b34801561028357600080fd5b5061029e60048036038101906102999190612f9d565b610bcd565b6040516102ab9190612fd9565b60405180910390f35b3480156102c057600080fd5b506102db60048036038101906102d69190612ff4565b610be9565b005b3480156102e957600080fd5b506102f2610bff565b6040516102ff9190613043565b60405180910390f35b34801561031457600080fd5b5061032f600480360381019061032a9190612f9d565b610c16565b005b34801561033d57600080fd5b506103586004803603810190610353919061305e565b610c28565b005b34801561036657600080fd5b50610381600480360381019061037c91906130dd565b610d2a565b60405161038e9190612f4f565b60405180910390f35b3480156103a357600080fd5b506103be60048036038101906103b9919061305e565b611220565b005b3480156103cc57600080fd5b506103e760048036038101906103e29190612f9d565b611240565b005b3480156103f557600080fd5b50610410600480360381019061040b9190612f9d565b6113e5565b60405161041d9190612c59565b60405180910390f35b34801561043257600080fd5b5061044d60048036038101906104489190613265565b611426565b005b34801561045b57600080fd5b50610464611441565b6040516104719190613043565b60405180910390f35b34801561048657600080fd5b506104a1600480360381019061049c9190612f9d565b611447565b6040516104b194939291906132ae565b60405180910390f35b3480156104c657600080fd5b506104e160048036038101906104dc9190612f9d565b6115b7565b6040516104ee9190612fd9565b60405180910390f35b34801561050357600080fd5b5061050c6115c9565b6040516105199190612d04565b60405180910390f35b34801561052e57600080fd5b5061054960048036038101906105449190612d84565b61165b565b6040516105569190613043565b60405180910390f35b34801561056b57600080fd5b50610574611715565b005b34801561058257600080fd5b5061058b611729565b6040516105989190612fd9565b60405180910390f35b3480156105ad57600080fd5b506105b6611753565b6040516105c39190612d04565b60405180910390f35b3480156105d857600080fd5b506105f360048036038101906105ee9190613265565b6117e5565b005b34801561060157600080fd5b5061061c60048036038101906106179190613301565b611800565b005b34801561062a57600080fd5b50610645600480360381019061064091906133e2565b611816565b005b34801561065357600080fd5b5061066e60048036038101906106699190612f9d565b611833565b60405161067b9190612d04565b60405180910390f35b61069e60048036038101906106999190613265565b6118a8565b005b3480156106ac57600080fd5b506106b5611a98565b6040516106c29190613043565b60405180910390f35b3480156106d757600080fd5b506106f260048036038101906106ed9190613465565b611aa2565b6040516106ff9190612c59565b60405180910390f35b34801561071457600080fd5b5061072f600480360381019061072a9190612d84565b611b36565b005b34801561073d57600080fd5b50610758600480360381019061075391906134e3565b611bbc565b005b6000634906490660e01b7bffffffffffffffffffffffffffffffffffffffffffffffffffffffff1916827bffffffffffffffffffffffffffffffffffffffffffffffffffffffff191614806107b457506107b382611d1f565b5b9050919050565b6060600080546107ca90613552565b80601f01602080910402602001604051908101604052809291908181526020018280546107f690613552565b80156108435780601f1061081857610100808354040283529160200191610843565b820191906000526020600020905b81548152906001019060200180831161082657829003601f168201915b5050505050905090565b60606000805b600e805490508110156108f4578373ffffffffffffffffffffffffffffffffffffffff16600e828154811061088b5761088a613583565b5b906000526020600020906004020160010160009054906101000a900473ffffffffffffffffffffffffffffffffffffffff1673ffffffffffffffffffffffffffffffffffffffff16036108e75781806108e3906135e1565b9250505b8080600101915050610853565b5060008167ffffffffffffffff8111156109115761091061313a565b5b60405190808252806020026020018201604052801561094a57816020015b610937612b67565b81526020019060019003908161092f5790505b5090506000805b600e80549050811015610bc1578573ffffffffffffffffffffffffffffffffffffffff16600e828154811061098957610988613583565b5b906000526020600020906004020160010160009054906101000a900473ffffffffffffffffffffffffffffffffffffffff1673ffffffffffffffffffffffffffffffffffffffff1603610bb457600e81815481106109ea576109e9613583565b5b9060005260206000209060040201604051806080016040529081600082015481526020016001820160009054906101000a900473ffffffffffffffffffffffffffffffffffffffff1673ffffffffffffffffffffffffffffffffffffffff1673ffffffffffffffffffffffffffffffffffffffff168152602001600282018054610a7390613552565b80601f0160208091040260200160405190810160405280929190818152602001828054610a9f90613552565b8015610aec5780601f10610ac157610100808354040283529160200191610aec565b820191906000526020600020905b815481529060010190602001808311610acf57829003601f168201915b50505050508152602001600382018054610b0590613552565b80601f0160208091040260200160405190810160405280929190818152602001828054610b3190613552565b8015610b7e5780601f10610b5357610100808354040283529160200191610b7e565b820191906000526020600020905b815481529060010190602001808311610b6157829003601f168201915b505050505081525050838381518110610b9a57610b99613583565b5b60200260200101819052508180610bb0906135e1565b9250505b8080600101915050610951565b50819350505050919050565b6000610bd882611e01565b50610be282611e89565b9050919050565b610bfb8282610bf6611ec6565b611ece565b5050565b6000600a54600954610c119190613629565b905090565b610c1e611ee0565b80600b8190555050565b600073ffffffffffffffffffffffffffffffffffffffff168273ffffffffffffffffffffffffffffffffffffffff1603610c9a5760006040517f64a0ae92000000000000000000000000000000000000000000000000000000008152600401610c919190612fd9565b60405180910390fd5b6000610cae8383610ca9611ec6565b611f67565b90508373ffffffffffffffffffffffffffffffffffffffff168173ffffffffffffffffffffffffffffffffffffffff1614610d24578382826040517f64283d7b000000000000000000000000000000000000000000000000000000008152600401610d1b9392919061365d565b60405180910390fd5b50505050565b6060600e805490508410610d73576040517f08c379a0000000000000000000000000000000000000000000000000000000008152600401610d6a906136e0565b60405180910390fd5b6000600e805490508486610d879190613700565b11610d925783610da4565b84600e80549050610da39190613629565b5b90506000808267ffffffffffffffff811115610dc357610dc261313a565b5b604051908082528060200260200182016040528015610dfc57816020015b610de9612b67565b815260200190600190039081610de15790505b509050841561101c575b8282101561101757600e82886001600e80549050610e249190613629565b610e2e9190613629565b610e389190613629565b81548110610e4957610e48613583565b5b9060005260206000209060040201604051806080016040529081600082015481526020016001820160009054906101000a900473ffffffffffffffffffffffffffffffffffffffff1673ffffffffffffffffffffffffffffffffffffffff1673ffffffffffffffffffffffffffffffffffffffff168152602001600282018054610ed290613552565b80601f0160208091040260200160405190810160405280929190818152602001828054610efe90613552565b8015610f4b5780601f10610f2057610100808354040283529160200191610f4b565b820191906000526020600020905b815481529060010190602001808311610f2e57829003601f168201915b50505050508152602001600382018054610f6490613552565b80601f0160208091040260200160405190810160405280929190818152602001828054610f9090613552565b8015610fdd5780601f10610fb257610100808354040283529160200191610fdd565b820191906000526020600020905b815481529060010190602001808311610fc057829003601f168201915b505050505081525050818381518110610ff957610ff8613583565b5b6020026020010181905250818061100f906135e1565b925050610e06565b611213565b5b8282101561121257600e82886110339190613700565b8154811061104457611043613583565b5b9060005260206000209060040201604051806080016040529081600082015481526020016001820160009054906101000a900473ffffffffffffffffffffffffffffffffffffffff1673ffffffffffffffffffffffffffffffffffffffff1673ffffffffffffffffffffffffffffffffffffffff1681526020016002820180546110cd90613552565b80601f01602080910402602001604051908101604052809291908181526020018280546110f990613552565b80156111465780601f1061111b57610100808354040283529160200191611146565b820191906000526020600020905b81548152906001019060200180831161112957829003601f168201915b5050505050815260200160038201805461115f90613552565b80601f016020809104026020016040519081016040528092919081815260200182805461118b90613552565b80156111d85780601f106111ad576101008083540402835291602001916111d8565b820191906000526020600020905b8154815290600101906020018083116111bb57829003601f168201915b5050505050815250508183815181106111f4576111f3613583565b5b6020026020010181905250818061120a906135e1565b92505061101d565b5b8093505050509392505050565b61123b83838360405180602001604052806000815250611816565b505050565b611248612181565b611250611ec6565b73ffffffffffffffffffffffffffffffffffffffff1661126f826115b7565b73ffffffffffffffffffffffffffffffffffffffff16146112c5576040517f08c379a00000000000000000000000000000000000000000000000000000000081526004016112bc90613780565b60405180910390fd5b6112ce816121c7565b6001600a60008282546112e19190613700565b9250508190555060005b600e805490508110156113d95781600e828154811061130d5761130c613583565b5b906000526020600020906004020160000154036113cc576000600e828154811061133a57611339613583565b5b906000526020600020906004020160010160006101000a81548173ffffffffffffffffffffffffffffffffffffffff021916908373ffffffffffffffffffffffffffffffffffffffff16021790555060405180602001604052806000815250600e82815481106113ad576113ac613583565b5b906000526020600020906004020160020190816113ca919061394c565b505b80806001019150506112eb565b506113e261224d565b50565b60008073ffffffffffffffffffffffffffffffffffffffff1661140783612257565b73ffffffffffffffffffffffffffffffffffffffff1614159050919050565b61142e611ee0565b80600c908161143d919061394c565b5050565b600b5481565b600e818154811061145757600080fd5b90600052602060002090600402016000915090508060000154908060010160009054906101000a900473ffffffffffffffffffffffffffffffffffffffff16908060020180546114a690613552565b80601f01602080910402602001604051908101604052809291908181526020018280546114d290613552565b801561151f5780601f106114f45761010080835404028352916020019161151f565b820191906000526020600020905b81548152906001019060200180831161150257829003601f168201915b50505050509080600301805461153490613552565b80601f016020809104026020016040519081016040528092919081815260200182805461156090613552565b80156115ad5780601f10611582576101008083540402835291602001916115ad565b820191906000526020600020905b81548152906001019060200180831161159057829003601f168201915b5050505050905084565b60006115c282611e01565b9050919050565b6060600c80546115d890613552565b80601f016020809104026020016040519081016040528092919081815260200182805461160490613552565b80156116515780601f1061162657610100808354040283529160200191611651565b820191906000526020600020905b81548152906001019060200180831161163457829003601f168201915b5050505050905090565b60008073ffffffffffffffffffffffffffffffffffffffff168273ffffffffffffffffffffffffffffffffffffffff16036116ce5760006040517f89c62b640000000000000000000000000000000000000000000000000000000081526004016116c59190612fd9565b60405180910390fd5b600360008373ffffffffffffffffffffffffffffffffffffffff1673ffffffffffffffffffffffffffffffffffffffff168152602001908152602001600020549050919050565b61171d611ee0565b6117276000612294565b565b6000600760009054906101000a900473ffffffffffffffffffffffffffffffffffffffff16905090565b60606001805461176290613552565b80601f016020809104026020016040519081016040528092919081815260200182805461178e90613552565b80156117db5780601f106117b0576101008083540402835291602001916117db565b820191906000526020600020905b8154815290600101906020018083116117be57829003601f168201915b5050505050905090565b6117ed611ee0565b80600d90816117fc919061394c565b5050565b61181261180b611ec6565b838361235a565b5050565b611821848484610c28565b61182d848484846124c9565b50505050565b606061183e826113e5565b61187d576040517f08c379a000000000000000000000000000000000000000000000000000000000815260040161187490613a90565b60405180910390fd5b600c600d604051602001611892929190613b3e565b6040516020818303038152906040529050919050565b6118b0612181565b600b5434146118f4576040517f08c379a00000000000000000000000000000000000000000000000000000000081526004016118eb90613bae565b60405180910390fd5b6001600960008282546119079190613700565b925050819055506000604051806080016040528060095481526020013373ffffffffffffffffffffffffffffffffffffffff168152602001838152602001600d805461195290613552565b80601f016020809104026020016040519081016040528092919081815260200182805461197e90613552565b80156119cb5780601f106119a0576101008083540402835291602001916119cb565b820191906000526020600020905b8154815290600101906020018083116119ae57829003601f168201915b50505050508152509050600e8190806001815401808255809150506001900390600052602060002090600402016000909190919091506000820151816000015560208201518160010160006101000a81548173ffffffffffffffffffffffffffffffffffffffff021916908373ffffffffffffffffffffffffffffffffffffffff1602179055506040820151816002019081611a67919061394c565b506060820151816003019081611a7d919061394c565b505050611a8c33600954612680565b50611a9561224d565b50565b6000600a54905090565b6000600560008473ffffffffffffffffffffffffffffffffffffffff1673ffffffffffffffffffffffffffffffffffffffff16815260200190815260200160002060008373ffffffffffffffffffffffffffffffffffffffff1673ffffffffffffffffffffffffffffffffffffffff16815260200190815260200160002060009054906101000a900460ff16905092915050565b611b3e611ee0565b600073ffffffffffffffffffffffffffffffffffffffff168173ffffffffffffffffffffffffffffffffffffffff1603611bb05760006040517f1e4fbdf7000000000000000000000000000000000000000000000000000000008152600401611ba79190612fd9565b60405180910390fd5b611bb981612294565b50565b611bc4611ee0565b611bcc612181565b600047905060008111611c14576040517f08c379a0000000000000000000000000000000000000000000000000000000008152600401611c0b90613c1a565b60405180910390fd5b80821115611c57576040517f08c379a0000000000000000000000000000000000000000000000000000000008152600401611c4e90613c86565b60405180910390fd5b8181611c639190613629565b905060008373ffffffffffffffffffffffffffffffffffffffff1683604051611c8b90613cd7565b60006040518083038185875af1925050503d8060008114611cc8576040519150601f19603f3d011682016040523d82523d6000602084013e611ccd565b606091505b5050905080611d11576040517f08c379a0000000000000000000000000000000000000000000000000000000008152600401611d0890613d38565b60405180910390fd5b5050611d1b61224d565b5050565b60007f80ac58cd000000000000000000000000000000000000000000000000000000007bffffffffffffffffffffffffffffffffffffffffffffffffffffffff1916827bffffffffffffffffffffffffffffffffffffffffffffffffffffffff19161480611dea57507f5b5e139f000000000000000000000000000000000000000000000000000000007bffffffffffffffffffffffffffffffffffffffffffffffffffffffff1916827bffffffffffffffffffffffffffffffffffffffffffffffffffffffff1916145b80611dfa5750611df98261269e565b5b9050919050565b600080611e0d83612257565b9050600073ffffffffffffffffffffffffffffffffffffffff168173ffffffffffffffffffffffffffffffffffffffff1603611e8057826040517f7e273289000000000000000000000000000000000000000000000000000000008152600401611e779190613043565b60405180910390fd5b80915050919050565b60006004600083815260200190815260200160002060009054906101000a900473ffffffffffffffffffffffffffffffffffffffff169050919050565b600033905090565b611edb8383836001612708565b505050565b611ee8611ec6565b73ffffffffffffffffffffffffffffffffffffffff16611f06611729565b73ffffffffffffffffffffffffffffffffffffffff1614611f6557611f29611ec6565b6040517f118cdaa7000000000000000000000000000000000000000000000000000000008152600401611f5c9190612fd9565b60405180910390fd5b565b600080611f7384612257565b9050600073ffffffffffffffffffffffffffffffffffffffff168373ffffffffffffffffffffffffffffffffffffffff1614611fb557611fb48184866128cd565b5b600073ffffffffffffffffffffffffffffffffffffffff168173ffffffffffffffffffffffffffffffffffffffff161461204657611ff7600085600080612708565b6001600360008373ffffffffffffffffffffffffffffffffffffffff1673ffffffffffffffffffffffffffffffffffffffff168152602001908152602001600020600082825403925050819055505b600073ffffffffffffffffffffffffffffffffffffffff168573ffffffffffffffffffffffffffffffffffffffff16146120c9576001600360008773ffffffffffffffffffffffffffffffffffffffff1673ffffffffffffffffffffffffffffffffffffffff168152602001908152602001600020600082825401925050819055505b846002600086815260200190815260200160002060006101000a81548173ffffffffffffffffffffffffffffffffffffffff021916908373ffffffffffffffffffffffffffffffffffffffff160217905550838573ffffffffffffffffffffffffffffffffffffffff168273ffffffffffffffffffffffffffffffffffffffff167fddf252ad1be2c89b69c2b068fc378daa952ba7f163c4a11628f55a4df523b3ef60405160405180910390a4809150509392505050565b6002600854036121bd576040517f3ee5aeb500000000000000000000000000000000000000000000000000000000815260040160405180910390fd5b6002600881905550565b60006121d66000836000611f67565b9050600073ffffffffffffffffffffffffffffffffffffffff168173ffffffffffffffffffffffffffffffffffffffff160361224957816040517f7e2732890000000000000000000000000000000000000000000000000000000081526004016122409190613043565b60405180910390fd5b5050565b6001600881905550565b60006002600083815260200190815260200160002060009054906101000a900473ffffffffffffffffffffffffffffffffffffffff169050919050565b6000600760009054906101000a900473ffffffffffffffffffffffffffffffffffffffff16905081600760006101000a81548173ffffffffffffffffffffffffffffffffffffffff021916908373ffffffffffffffffffffffffffffffffffffffff1602179055508173ffffffffffffffffffffffffffffffffffffffff168173ffffffffffffffffffffffffffffffffffffffff167f8be0079c531659141344cd1fd0a4f28419497f9722a3daafe3b4186f6b6457e060405160405180910390a35050565b600073ffffffffffffffffffffffffffffffffffffffff168273ffffffffffffffffffffffffffffffffffffffff16036123cb57816040517f5b08ba180000000000000000000000000000000000000000000000000000000081526004016123c29190612fd9565b60405180910390fd5b80600560008573ffffffffffffffffffffffffffffffffffffffff1673ffffffffffffffffffffffffffffffffffffffff16815260200190815260200160002060008473ffffffffffffffffffffffffffffffffffffffff1673ffffffffffffffffffffffffffffffffffffffff16815260200190815260200160002060006101000a81548160ff0219169083151502179055508173ffffffffffffffffffffffffffffffffffffffff168373ffffffffffffffffffffffffffffffffffffffff167f17307eab39ab6107e8899845ad3d59bd9653f200f220920489ca2b5937696c31836040516124bc9190612c59565b60405180910390a3505050565b60008373ffffffffffffffffffffffffffffffffffffffff163b111561267a578273ffffffffffffffffffffffffffffffffffffffff1663150b7a0261250d611ec6565b8685856040518563ffffffff1660e01b815260040161252f9493929190613dad565b6020604051808303816000875af192505050801561256b57506040513d601f19601f820116820180604052508101906125689190613e0e565b60015b6125ef573d806000811461259b576040519150601f19603f3d011682016040523d82523d6000602084013e6125a0565b606091505b5060008151036125e757836040517f64a0ae920000000000000000000000000000000000000000000000000000000081526004016125de9190612fd9565b60405180910390fd5b805181602001fd5b63150b7a0260e01b7bffffffffffffffffffffffffffffffffffffffffffffffffffffffff1916817bffffffffffffffffffffffffffffffffffffffffffffffffffffffff19161461267857836040517f64a0ae9200000000000000000000000000000000000000000000000000000000815260040161266f9190612fd9565b60405180910390fd5b505b50505050565b61269a828260405180602001604052806000815250612991565b5050565b60007f01ffc9a7000000000000000000000000000000000000000000000000000000007bffffffffffffffffffffffffffffffffffffffffffffffffffffffff1916827bffffffffffffffffffffffffffffffffffffffffffffffffffffffff1916149050919050565b80806127415750600073ffffffffffffffffffffffffffffffffffffffff168273ffffffffffffffffffffffffffffffffffffffff1614155b1561287557600061275184611e01565b9050600073ffffffffffffffffffffffffffffffffffffffff168373ffffffffffffffffffffffffffffffffffffffff16141580156127bc57508273ffffffffffffffffffffffffffffffffffffffff168173ffffffffffffffffffffffffffffffffffffffff1614155b80156127cf57506127cd8184611aa2565b155b1561281157826040517fa9fbf51f0000000000000000000000000000000000000000000000000000000081526004016128089190612fd9565b60405180910390fd5b811561287357838573ffffffffffffffffffffffffffffffffffffffff168273ffffffffffffffffffffffffffffffffffffffff167f8c5be1e5ebec7d5bd14f71427d1e84f3dd0314c0f7b2291e5b200ac8c7c3b92560405160405180910390a45b505b836004600085815260200190815260200160002060006101000a81548173ffffffffffffffffffffffffffffffffffffffff021916908373ffffffffffffffffffffffffffffffffffffffff16021790555050505050565b6128d88383836129ad565b61298c57600073ffffffffffffffffffffffffffffffffffffffff168373ffffffffffffffffffffffffffffffffffffffff160361294d57806040517f7e2732890000000000000000000000000000000000000000000000000000000081526004016129449190613043565b60405180910390fd5b81816040517f177e802f000000000000000000000000000000000000000000000000000000008152600401612983929190613e3b565b60405180910390fd5b505050565b61299b8383612a6e565b6129a860008484846124c9565b505050565b60008073ffffffffffffffffffffffffffffffffffffffff168373ffffffffffffffffffffffffffffffffffffffff1614158015612a6557508273ffffffffffffffffffffffffffffffffffffffff168473ffffffffffffffffffffffffffffffffffffffff161480612a265750612a258484611aa2565b5b80612a6457508273ffffffffffffffffffffffffffffffffffffffff16612a4c83611e89565b73ffffffffffffffffffffffffffffffffffffffff16145b5b90509392505050565b600073ffffffffffffffffffffffffffffffffffffffff168273ffffffffffffffffffffffffffffffffffffffff1603612ae05760006040517f64a0ae92000000000000000000000000000000000000000000000000000000008152600401612ad79190612fd9565b60405180910390fd5b6000612aee83836000611f67565b9050600073ffffffffffffffffffffffffffffffffffffffff168173ffffffffffffffffffffffffffffffffffffffff1614612b625760006040517f73c6ac6e000000000000000000000000000000000000000000000000000000008152600401612b599190612fd9565b60405180910390fd5b505050565b604051806080016040528060008152602001600073ffffffffffffffffffffffffffffffffffffffff16815260200160608152602001606081525090565b6000604051905090565b600080fd5b600080fd5b60007fffffffff0000000000000000000000000000000000000000000000000000000082169050919050565b612bee81612bb9565b8114612bf957600080fd5b50565b600081359050612c0b81612be5565b92915050565b600060208284031215612c2757612c26612baf565b5b6000612c3584828501612bfc565b91505092915050565b60008115159050919050565b612c5381612c3e565b82525050565b6000602082019050612c6e6000830184612c4a565b92915050565b600081519050919050565b600082825260208201905092915050565b60005b83811015612cae578082015181840152602081019050612c93565b60008484015250505050565b6000601f19601f8301169050919050565b6000612cd682612c74565b612ce08185612c7f565b9350612cf0818560208601612c90565b612cf981612cba565b840191505092915050565b60006020820190508181036000830152612d1e8184612ccb565b905092915050565b600073ffffffffffffffffffffffffffffffffffffffff82169050919050565b6000612d5182612d26565b9050919050565b612d6181612d46565b8114612d6c57600080fd5b50565b600081359050612d7e81612d58565b92915050565b600060208284031215612d9a57612d99612baf565b5b6000612da884828501612d6f565b91505092915050565b600081519050919050565b600082825260208201905092915050565b6000819050602082019050919050565b6000819050919050565b612df081612ddd565b82525050565b612dff81612d46565b82525050565b600082825260208201905092915050565b6000612e2182612c74565b612e2b8185612e05565b9350612e3b818560208601612c90565b612e4481612cba565b840191505092915050565b6000608083016000830151612e676000860182612de7565b506020830151612e7a6020860182612df6565b5060408301518482036040860152612e928282612e16565b91505060608301518482036060860152612eac8282612e16565b9150508091505092915050565b6000612ec58383612e4f565b905092915050565b6000602082019050919050565b6000612ee582612db1565b612eef8185612dbc565b935083602082028501612f0185612dcd565b8060005b85811015612f3d5784840389528151612f1e8582612eb9565b9450612f2983612ecd565b925060208a01995050600181019050612f05565b50829750879550505050505092915050565b60006020820190508181036000830152612f698184612eda565b905092915050565b612f7a81612ddd565b8114612f8557600080fd5b50565b600081359050612f9781612f71565b92915050565b600060208284031215612fb357612fb2612baf565b5b6000612fc184828501612f88565b91505092915050565b612fd381612d46565b82525050565b6000602082019050612fee6000830184612fca565b92915050565b6000806040838503121561300b5761300a612baf565b5b600061301985828601612d6f565b925050602061302a85828601612f88565b9150509250929050565b61303d81612ddd565b82525050565b60006020820190506130586000830184613034565b92915050565b60008060006060848603121561307757613076612baf565b5b600061308586828701612d6f565b935050602061309686828701612d6f565b92505060406130a786828701612f88565b9150509250925092565b6130ba81612c3e565b81146130c557600080fd5b50565b6000813590506130d7816130b1565b92915050565b6000806000606084860312156130f6576130f5612baf565b5b600061310486828701612f88565b935050602061311586828701612f88565b9250506040613126868287016130c8565b9150509250925092565b600080fd5b600080fd5b7f4e487b7100000000000000000000000000000000000000000000000000000000600052604160045260246000fd5b61317282612cba565b810181811067ffffffffffffffff821117156131915761319061313a565b5b80604052505050565b60006131a4612ba5565b90506131b08282613169565b919050565b600067ffffffffffffffff8211156131d0576131cf61313a565b5b6131d982612cba565b9050602081019050919050565b82818337600083830152505050565b6000613208613203846131b5565b61319a565b90508281526020810184848401111561322457613223613135565b5b61322f8482856131e6565b509392505050565b600082601f83011261324c5761324b613130565b5b813561325c8482602086016131f5565b91505092915050565b60006020828403121561327b5761327a612baf565b5b600082013567ffffffffffffffff81111561329957613298612bb4565b5b6132a584828501613237565b91505092915050565b60006080820190506132c36000830187613034565b6132d06020830186612fca565b81810360408301526132e28185612ccb565b905081810360608301526132f68184612ccb565b905095945050505050565b6000806040838503121561331857613317612baf565b5b600061332685828601612d6f565b9250506020613337858286016130c8565b9150509250929050565b600067ffffffffffffffff82111561335c5761335b61313a565b5b61336582612cba565b9050602081019050919050565b600061338561338084613341565b61319a565b9050828152602081018484840111156133a1576133a0613135565b5b6133ac8482856131e6565b509392505050565b600082601f8301126133c9576133c8613130565b5b81356133d9848260208601613372565b91505092915050565b600080600080608085870312156133fc576133fb612baf565b5b600061340a87828801612d6f565b945050602061341b87828801612d6f565b935050604061342c87828801612f88565b925050606085013567ffffffffffffffff81111561344d5761344c612bb4565b5b613459878288016133b4565b91505092959194509250565b6000806040838503121561347c5761347b612baf565b5b600061348a85828601612d6f565b925050602061349b85828601612d6f565b9150509250929050565b60006134b082612d26565b9050919050565b6134c0816134a5565b81146134cb57600080fd5b50565b6000813590506134dd816134b7565b92915050565b600080604083850312156134fa576134f9612baf565b5b6000613508858286016134ce565b925050602061351985828601612f88565b9150509250929050565b7f4e487b7100000000000000000000000000000000000000000000000000000000600052602260045260246000fd5b6000600282049050600182168061356a57607f821691505b60208210810361357d5761357c613523565b5b50919050565b7f4e487b7100000000000000000000000000000000000000000000000000000000600052603260045260246000fd5b7f4e487b7100000000000000000000000000000000000000000000000000000000600052601160045260246000fd5b60006135ec82612ddd565b91507fffffffffffffffffffffffffffffffffffffffffffffffffffffffffffffffff820361361e5761361d6135b2565b5b600182019050919050565b600061363482612ddd565b915061363f83612ddd565b9250828203905081811115613657576136566135b2565b5b92915050565b60006060820190506136726000830186612fca565b61367f6020830185613034565b61368c6040830184612fca565b949350505050565b7f4f6666736574206f7574206f6620626f756e64732e0000000000000000000000600082015250565b60006136ca601583612c7f565b91506136d582613694565b602082019050919050565b600060208201905081810360008301526136f9816136bd565b9050919050565b600061370b82612ddd565b915061371683612ddd565b925082820190508082111561372e5761372d6135b2565b5b92915050565b7f63616c6c6572206973206e6f74206f776e6572206e6f7220617070726f766564600082015250565b600061376a602083612c7f565b915061377582613734565b602082019050919050565b600060208201905081810360008301526137998161375d565b9050919050565b60008190508160005260206000209050919050565b60006020601f8301049050919050565b600082821b905092915050565b6000600883026138027fffffffffffffffffffffffffffffffffffffffffffffffffffffffffffffffff826137c5565b61380c86836137c5565b95508019841693508086168417925050509392505050565b6000819050919050565b600061384961384461383f84612ddd565b613824565b612ddd565b9050919050565b6000819050919050565b6138638361382e565b61387761386f82613850565b8484546137d2565b825550505050565b600090565b61388c61387f565b61389781848461385a565b505050565b5b818110156138bb576138b0600082613884565b60018101905061389d565b5050565b601f821115613900576138d1816137a0565b6138da846137b5565b810160208510156138e9578190505b6138fd6138f5856137b5565b83018261389c565b50505b505050565b600082821c905092915050565b600061392360001984600802613905565b1980831691505092915050565b600061393c8383613912565b9150826002028217905092915050565b61395582612c74565b67ffffffffffffffff81111561396e5761396d61313a565b5b6139788254613552565b6139838282856138bf565b600060209050601f8311600181146139b657600084156139a4578287015190505b6139ae8582613930565b865550613a16565b601f1984166139c4866137a0565b60005b828110156139ec578489015182556001820191506020850194506020810190506139c7565b86831015613a095784890151613a05601f891682613912565b8355505b6001600288020188555050505b505050505050565b7f4552433732314d657461646174613a2055524920717565727920666f72206e6f60008201527f6e6578697374656e7420746f6b656e0000000000000000000000000000000000602082015250565b6000613a7a602f83612c7f565b9150613a8582613a1e565b604082019050919050565b60006020820190508181036000830152613aa981613a6d565b9050919050565b600081905092915050565b60008154613ac881613552565b613ad28186613ab0565b94506001821660008114613aed5760018114613b0257613b35565b60ff1983168652811515820286019350613b35565b613b0b856137a0565b60005b83811015613b2d57815481890152600182019150602081019050613b0e565b838801955050505b50505092915050565b6000613b4a8285613abb565b9150613b568284613abb565b91508190509392505050565b7f4d696e74696e672072657175697265732074686520636f727265637420666565600082015250565b6000613b98602083612c7f565b9150613ba382613b62565b602082019050919050565b60006020820190508181036000830152613bc781613b8b565b9050919050565b7f4e6f2066756e647320746f207769746864726177000000000000000000000000600082015250565b6000613c04601483612c7f565b9150613c0f82613bce565b602082019050919050565b60006020820190508181036000830152613c3381613bf7565b9050919050565b7f416d6f756e7420657863656564732062616c616e636500000000000000000000600082015250565b6000613c70601683612c7f565b9150613c7b82613c3a565b602082019050919050565b60006020820190508181036000830152613c9f81613c63565b9050919050565b600081905092915050565b50565b6000613cc1600083613ca6565b9150613ccc82613cb1565b600082019050919050565b6000613ce282613cb4565b9150819050919050565b7f5472616e73666572206661696c65642e00000000000000000000000000000000600082015250565b6000613d22601083612c7f565b9150613d2d82613cec565b602082019050919050565b60006020820190508181036000830152613d5181613d15565b9050919050565b600081519050919050565b600082825260208201905092915050565b6000613d7f82613d58565b613d898185613d63565b9350613d99818560208601612c90565b613da281612cba565b840191505092915050565b6000608082019050613dc26000830187612fca565b613dcf6020830186612fca565b613ddc6040830185613034565b8181036060830152613dee8184613d74565b905095945050505050565b600081519050613e0881612be5565b92915050565b600060208284031215613e2457613e23612baf565b5b6000613e3284828501613df9565b91505092915050565b6000604082019050613e506000830185612fca565b613e5d6020830184613034565b939250505056fea2646970667358221220066a38fd0857c9cf6733ec005448b5f15cb1cbb51cb5f123c96052c8ab1c2e5e64736f6c63430008180033",
  "linkReferences": {},
  "deployedLinkReferences": {}
}